:100000000C942A000C9447000C9447000C94470071
:100010000C9447000C9447000C9447000C94470044
:100020000C9447000C9447000C9447000C94470034
:100030000C9447000C9447000C9447000C94470024
:100040000C9447000C9447000C9447000C94470014
:100050000C94470011241FBECFE5D8E0DEBFCDBF12
:1000600011E0A0E6B0E0E2EEFEE202C005900D92E3
:10007000A039B107D9F711E0A0E9B1E001C01D92A4
:10008000A83BB107E1F70E94F3140C946F170C948E
:100090000000EF92FF920F931F937B018C0120E0F1
:1000A00030E040E05FE40E94250488238CF0C80122
:1000B000B70120E030E040E05FE40E94C1010E940F
:1000C000E3049B01AC01205030404040504806C042
:1000D000C801B7010E94E3049B01AC01B901CA0148
:1000E0001F910F91FF90EF900895A0E0B0E0EBE733
:1000F000F0E00C943817DC012B01FA019C9192304E
:1001000008F439C1EB018881823008F433C194309E
:1001100069F4843009F02FC111969C91119789815F
:10012000981709F428C1A0E6B0E025C1843009F48D
:1001300021C18230A9F4923009F01DC19A01AD01AC
:1001400088E0EA010990AE01E90109929E0181501F
:10015000C1F7E201898111969C918923818308C1AD
:10016000923009F407C112962D903C901397EB0141
:100170008A819B811496AD90BD90CD90DC901797AD
:10018000EC80FD800E811F819101281B390BB90184
:1001900037FF04C066277727621B730B6032710537
:1001A0000CF061C0121613066CF537014801062EDB
:1001B00004C096948794779467940A94D2F721E0C8
:1001C00030E040E050E004C0220F331F441F551FB1
:1001D0006A95D2F721503040404050402E213F21B7
:1001E00040235123211531054105510521F021E01E
:1001F00030E040E050E079018A01E628F72808293C
:1002000019293CC0232BD1F1260E371E350146019A
:10021000062E04C096948794779467940A94D2F734
:1002200021E030E040E050E004C0220F331F441FC3
:10023000551F6A95D2F721503040404050402A2146
:100240003B214C215D21211531054105510521F04E
:1002500021E030E040E050E059016A01A628B728CB
:10026000C828D9280BC0821593052CF01C01AA249C
:10027000BB24650103C0EE24FF24870111969C91E5
:10028000D20111968C91981709F445C0992339F041
:10029000A80197012A193B094C095D0906C0A6016E
:1002A00095012E193F09400B510B57FD08C01182D3
:1002B0003382228224833583468357831DC081E0A5
:1002C00081833382228288279927DC01821B930B4A
:1002D000A40BB50B84839583A683B7830DC0220F2F
:1002E000331F441F551F24833583468357838281E0
:1002F000938101979383828324813581468157813D
:10030000DA01C9010197A109B1098F5F9F4FAF4F72
:10031000BF4328F30BC0918333822282EA0CFB1C7B
:100320000C1D1D1DE482F5820683178383E0808304
:10033000248135814681578157FF1AC0C901AA27F8
:1003400097FDA095BA2F81709070A070B0705695EF
:10035000479537952795822B932BA42BB52B848318
:100360009583A683B7838281938101969383828349
:10037000DF0101C0D201CD01CDB7DEB7E2E10C94BF
:100380005417A0E2B0E0E7ECF1E00C944417698365
:100390007A838B839C832D833E834F835887E9E048
:1003A000EE2EF12CEC0EFD1ECE010196B7010E943F
:1003B000D4068E010F5E1F4FCE010596B8010E9434
:1003C000D4068A8991E089278A8BC701B801AE01DA
:1003D000475E5F4F0E9475000E94FF05A096E6E011
:1003E0000C946017A0E2B0E0E8EFF1E00C94441741
:1003F00069837A838B839C832D833E834F835887C5
:10040000F9E0EF2EF12CEC0EFD1ECE010196B701A6
:100410000E94D4068E010F5E1F4FCE010596B801D3
:100420000E94D406C701B801AE01475E5F4F0E942B
:1004300075000E94FF05A096E6E00C946017A0E20C
:10044000B0E0E5E2F2E00C94381769837A838B839D
:100450009C832D833E834F835887CE010196BE0136
:10046000675F7F4F0E94D406CE010596BE016F5E86
:100470007F4F0E94D4069985923088F08989823016
:10048000C8F0943019F4823051F404C0843029F457
:10049000923081F480E690E0C6C0923049F420E0CA
:1004A0009A858A89981321E02A87CE010996BBC0D4
:1004B000823049F420E09A858A89981321E02A8BBA
:1004C000CE014196B0C02D843E844F8458886D88FB
:1004D0007E888F88988CEE24FF248701AA24BB2471
:1004E000650140E050E060E070E0E0E0F0E0C10174
:1004F00081709070892BE9F0E60CF71C081D191D1E
:100500009A01AB012A0D3B1D4C1D5D1D80E090E062
:10051000A0E0B0E0E614F7040805190520F481E036
:1005200090E0A0E0B0E0BA01A901480F591F6A1F8E
:100530007B1FAA0CBB1CCC1CDD1C97FE08C081E0F5
:1005400090E0A0E0B0E0A82AB92ACA2ADB2A3196B6
:10055000E032F10549F0660C771C881C991C569412
:10056000479437942794C3CFFA85EA892B893C892D
:100570008B859C85280F391F2E5F3F4F17C0CA01FE
:1005800081709070892B61F016950795F794E79428
:1005900080E090E0A0E0B0E8E82AF92A0A2B1B2BC3
:1005A00076956795579547952F5F3F4F77FDE7CF36
:1005B0000CC0440F551F661F771F17FD4160EE0CDE
:1005C000FF1C001F111F21503040403090E05907A0
:1005D00090E0690790E4790760F32B8F3C8FDB0193
:1005E000CA018F779070A070B07080349105A1051A
:1005F000B10561F447FD0AC0E114F10401051105DC
:1006000029F0405C5F4F6F4F7F4F40781A8EFE1786
:1006100011F081E08A8F4D8F5E8F6F8F78A383E01A
:10062000898FCE0149960E94FF05A096E2E10C94C5
:100630005417A8E1B0E0EFE1F3E00C9440176983B0
:100640007A838B839C832D833E834F835887B9E0C5
:10065000EB2EF12CEC0EFD1ECE010196B7010E948F
:10066000D4068E010F5E1F4FCE010596B8010E9481
:10067000D4062985223008F47EC03989323010F43E
:10068000B8017CC08A859A8989278A87243011F02D
:10069000223031F4231709F06EC060E670E06EC0BE
:1006A000343039F41D861E861F86188A1C861B86E8
:1006B00004C0323021F484E08987B7015FC02B8504
:1006C0003C858B899C89281B390B3C872B87ED84C3
:1006D000FE840F851889AD88BE88CF88D88CEA142F
:1006E000FB040C051D0540F4EE0CFF1C001F111F40
:1006F000215030403C872B8720E030E040E050E044
:1007000080E090E0A0E0B0E460E070E0EA14FB0478
:100710000C051D0540F0282B392B4A2B5B2BEA18C2
:10072000FB080C091D09B695A79597958795EE0CC2
:10073000FF1C001F111F6F5F7F4F6F31710531F775
:10074000DA01C9018F779070A070B0708034910584
:10075000A105B10561F427FD0AC0E114F10401050A
:10076000110529F0205C3F4F4F4F5F4F20782D87B8
:100770003E874F87588BBE01675F7F4FCB010E943A
:10078000FF056896EAE00C945C17A8E1B0E0EBEC9A
:10079000F3E00C94441769837A838B839C832D83C5
:1007A0003E834F83588789E0E82EF12CEC0EFD1E26
:1007B000CE010196B7010E94D4068E010F5E1F4F35
:1007C000CE010596B8010E94D4068985823040F09A
:1007D0008989823028F0C701B8010E944C0701C006
:1007E00081E06896E6E00C946017A8E1B0E0EBEFDA
:1007F000F3E00C94441769837A838B839C832D8365
:100800003E834F83588789E0E82EF12CEC0EFD1EC5
:10081000CE010196B7010E94D4068E010F5E1F4FD4
:10082000CE010596B8010E94D4068985823040F039
:100830008989823028F0C701B8010E944C0701C0A5
:100840008FEF6896E6E00C946017A8E1B0E0EBE269
:10085000F4E00C94441769837A838B839C832D8303
:100860003E834F83588789E0E82EF12CEC0EFD1E65
:10087000CE010196B7010E94D4068E010F5E1F4F74
:10088000CE010596B8010E94D4068985823040F0D9
:100890008989823028F0C701B8010E944C0701C045
:1008A0008FEF6896E6E00C946017A8E1B0E0EBE506
:1008B000F4E00C94441769837A838B839C832D83A3
:1008C0003E834F83588789E0E82EF12CEC0EFD1E05
:1008D000CE010196B7010E94D4068E010F5E1F4F14
:1008E000CE010596B8010E94D4068985823040F079
:1008F0008989823028F0C701B8010E944C0701C0E5
:1009000081E06896E6E00C946017A8E0B0E0EBE8C0
:10091000F4E00C9441179B01AC0183E08983DA0178
:10092000C9018827B7FD83959927AA27BB27B82E29
:10093000211531054105510519F482E089833AC03A
:100940008823A9F0203080E0380780E0480780E85D
:10095000580729F460E070E080E09FEC30C0EE249E
:10096000FF248701E21AF30A040B150B02C0790178
:100970008A018EE1C82ED12CDC82CB82ED82FE82F0
:100980000F831887C801B7010E94B0050197181698
:10099000190684F4082E04C0EE0CFF1C001F111F62
:1009A0000A94D2F7ED82FE820F831887C81AD90AFB
:1009B000DC82CB82BA82CE0101960E94FF05289686
:1009C000E9E00C945D17ACE0B0E0E9EEF4E00C94E3
:1009D000481769837A838B839C83CE010196BE017D
:1009E0006B5F7F4F0E94D4068D81823061F182302F
:1009F00050F1843021F48E81882351F12EC02F8153
:100A0000388537FD20C06E812F3131051CF06623FB
:100A1000F9F023C08EE190E0821B930B29853A8583
:100A20004B855C8504C056954795379527958A95E3
:100A3000D2F76623B1F050954095309521953F4F00
:100A40004F4F5F4F0EC020E030E040E050E009C063
:100A50002FEF3FEF4FEF5FE704C020E030E040E0D2
:100A600050E8B901CA012C96E2E00C946417A8E0A2
:100A7000B0E0EDE3F5E00C9440177B018C016115CB
:100A800071058105910519F482E0898360C083E0D6
:100A900089838EE1C82ED12CDC82CB82ED82FE824E
:100AA0000F831887C801B7010E94B005FC01319778
:100AB000F7FF3BC0222733272E1B3F0B570168014E
:100AC000022E04C0D694C794B794A7940A94D2F780
:100AD00040E050E060E070E081E090E0A0E0B0E055
:100AE00004C0880F991FAA1FBB1F2A95D2F7019730
:100AF000A109B1098E219F21A023B1230097A1054F
:100B0000B10521F041E050E060E070E04A295B2946
:100B10006C297D294D835E836F8378878EE190E019
:100B20008E1B9F0B9C838B8312C0309781F00E2EFF
:100B300004C0EE0CFF1C001F111F0A94D2F7ED82B7
:100B4000FE820F831887CE1ADF0ADC82CB821A82DC
:100B5000CE0101960E94FF052896EAE00C945C17EE
:100B6000EF92FF920F931F937B018C0180E0E816B8
:100B700080E0F80681E0080780E0180788F48FEF2E
:100B8000E816F1040105110531F028F088E090E045
:100B9000A0E0B0E017C080E090E0A0E0B0E012C0BC
:100BA00080E0E81680E0F80680E0080781E018079A
:100BB00028F088E190E0A0E0B0E004C080E190E09F
:100BC000A0E0B0E020E230E040E050E0281B390B2C
:100BD0004A0B5B0B04C016950795F794E7948A952A
:100BE000D2F7F701E859FF4F8081281B31094109ED
:100BF0005109C9011F910F91FF90EF900895DF9265
:100C0000EF92FF920F931F93FC01E480F580068121
:100C10001781D1808081823048F480E090E0A0E1AB
:100C2000B0E0E82AF92A0A2B1B2BA5C0843009F46E
:100C30009FC0823021F4EE24FF24870105C0E11417
:100C4000F1040105110519F4E0E0F0E096C06281BD
:100C500073819FEF623879070CF05BC022E83FEFA9
:100C6000261B370B2A3131052CF020E030E040E024
:100C700050E02AC0B801A701022E04C076956795FE
:100C8000579547950A94D2F781E090E0A0E0B0E054
:100C900004C0880F991FAA1FBB1F2A95D2F701977E
:100CA000A109B1098E219F21A023B1230097A1059D
:100CB000B10521F081E090E0A0E0B0E09A01AB0145
:100CC000282B392B4A2B5B2BDA01C9018F779070C7
:100CD000A070B07080349105A105B10539F427FFEB
:100CE00009C0205C3F4F4F4F5F4F04C0215C3F4F16
:100CF0004F4F5F4FE0E0F0E02030A0E03A07A0E087
:100D00004A07A0E45A0710F0E1E0F0E079018A0117
:100D100027C06038710564F5FB01E158FF4FD80129
:100D2000C7018F779070A070B07080349105A105D5
:100D3000B10539F4E7FE0DC080E490E0A0E0B0E03A
:100D400004C08FE390E0A0E0B0E0E80EF91E0A1FB7
:100D50001B1F17FF05C016950795F794E79431966A
:100D600087E016950795F794E7948A95D1F705C023
:100D7000EE24FF248701EFEFF0E06E2F67956627E2
:100D80006795902F9F77D794DD24D7948E2F8695E3
:100D9000492F462B582F5D29B701CA011F910F918A
:100DA000FF90EF90DF900895FC01DB0140815181BD
:100DB0002281622F6F7770E0221F2227221F9381EA
:100DC000892F880F822B282F30E0991F9927991F90
:100DD00011969C93119721153105A9F541155105DF
:100DE0006105710511F482E037C082E89FEF139628
:100DF0009C938E9312979A01AB0167E0220F331FE9
:100E0000441F551F6A95D1F783E08C930DC0220FC4
:100E1000331F441F551F12968D919C911397019774
:100E200013969C938E931297203080E0380780E0D1
:100E3000480780E4580758F314962D933D934D933B
:100E40005C93179708952F3F310579F441155105AB
:100E50006105710519F484E08C93089564FF03C063
:100E600081E08C9312C01C9210C02F573040139613
:100E70003C932E93129783E08C9387E0440F551F89
:100E8000661F771F8A95D1F7706414964D935D9312
:100E90006D937C93179708951F93DC01FB019C9140
:100EA000923008F447C08081823008F443C0943007
:100EB00051F411961C91843099F58181682F70E06E
:100EC000611B71093FC0843021F0923031F48230CF
:100ED000B9F18181882389F12DC011961C91119758
:100EE0008230F1F081811817D9F412962D913C913E
:100EF0001397828193818217930794F028173907FB
:100F0000BCF014968D919D910D90BC91A02D2481E3
:100F1000358146815781281739074A075B0718F43E
:100F2000112341F00AC082179307A407B50740F4C4
:100F3000112319F061E070E005C06FEF7FEF02C090
:100F400060E070E0CB011F910895DF93CF93CDB7A0
:100F5000DEB7EAE3F0E08EE78083E7E3F0E080EFDE
:100F60008083E4E3F0E087E08083E1E3F0E083EC7A
:100F70008083EBE3F0E01082E8E3F0E080EF808331
:100F8000E5E3F0E01082E2E3F0E08CE38083CF91D0
:100F9000DF910895DF93CF9300D000D000D0CDB77C
:100FA000DEB78A836B834C8381E089838A818430B6
:100FB00008F0DDC08B81883008F0D9C08C8188238F
:100FC00021F08C81813009F0D2C08A81282F30E055
:100FD0003E832D838D819E818130910509F443C02C
:100FE0002D813E81223031052CF48D819E81009728
:100FF00071F0BEC02D813E812230310509F45FC001
:101000008D819E818330910509F485C0B1C08C81AA
:101010008823A9F4AAE3B0E0EAE3F0E08081482F56
:101020008B81282F30E081E090E0022E02C0880FF3
:10103000991F0A94E2F7809584238C9399C0AAE3C0
:10104000B0E0EAE3F0E08081482F8B81282F30E088
:1010500081E090E0022E02C0880F991F0A94E2F707
:10106000842B8C9385C08C818823A9F4A7E3B0E0FE
:10107000E7E3F0E08081482F8B81282F30E081E08A
:1010800090E0022E02C0880F991F0A94E2F7809523
:1010900084238C936DC0A7E3B0E0E7E3F0E08081A8
:1010A000482F8B81282F30E081E090E0022E02C093
:1010B000880F991F0A94E2F7842B8C9359C08C8176
:1010C0008823A9F4A4E3B0E0E4E3F0E08081482FB2
:1010D0008B81282F30E081E090E0022E02C0880F43
:1010E000991F0A94E2F7809584238C9341C0A4E36E
:1010F000B0E0E4E3F0E08081482F8B81282F30E0DE
:1011000081E090E0022E02C0880F991F0A94E2F756
:10111000842B8C932DC08C818823A9F4A1E3B0E0AB
:10112000E1E3F0E08081482F8B81282F30E081E0DF
:1011300090E0022E02C0880F991F0A94E2F7809572
:1011400084238C9315C0A1E3B0E0E1E3F0E080815B
:10115000482F8B81282F30E081E090E0022E02C0E2
:10116000880F991F0A94E2F7842B8C9301C019828F
:10117000898126960FB6F894DEBF0FBECDBFCF9102
:10118000DF910895DF93CF9300D000D000D0CDB78A
:10119000DEB78A836B834C8381E089838A818430C4
:1011A00008F0DDC08B81883008F0D9C08C81813097
:1011B00021F08C81882309F0D2C08A81282F30E069
:1011C0003E832D838D819E818130910509F443C03A
:1011D0002D813E81223031052CF48D819E81009736
:1011E00071F0BEC02D813E812230310509F45FC00F
:1011F0008D819E818330910509F485C0B1C08C81B9
:101200008130A1F4ABE3B0E0EBE3F0E08081482F64
:101210008B81282F30E081E090E0022E02C0880F01
:10122000991F0A94E2F7842B8C939AC0ABE3B0E049
:10123000EBE3F0E08081482F8B81282F30E081E0C4
:1012400090E0022E02C0880F991F0A94E2F7809561
:1012500084238C9385C08C818130A1F4A8E3B0E015
:10126000E8E3F0E08081482F8B81282F30E081E097
:1012700090E0022E02C0880F991F0A94E2F7842B97
:101280008C936EC0A8E3B0E0E8E3F0E08081482FE3
:101290008B81282F30E081E090E0022E02C0880F81
:1012A000991F0A94E2F7809584238C9359C08C810E
:1012B0008130A1F4A5E3B0E0E5E3F0E08081482FC0
:1012C0008B81282F30E081E090E0022E02C0880F51
:1012D000991F0A94E2F7842B8C9342C0A5E3B0E0F7
:1012E000E5E3F0E08081482F8B81282F30E081E01A
:1012F00090E0022E02C0880F991F0A94E2F78095B1
:1013000084238C932DC08C818130A1F4A5E3B0E0BF
:10131000E5E3F0E08081482F8B81282F30E081E0E9
:1013200090E0022E02C0880F991F0A94E2F7842BE6
:101330008C9316C0A5E3B0E0E5E3F0E08081482F90
:101340008B81282F30E081E090E0022E02C0880FD0
:10135000991F0A94E2F7809584238C9301C0198227
:10136000898126960FB6F894DEBF0FBECDBFCF9110
:10137000DF910895DF93CF93CDB7DEB728970FB6EF
:10138000F894DEBF0FBECDBF8B836C835E834D832D
:1013900081E08A838B81843008F09FC08C81883003
:1013A00008F09BC08D819E81009709F496C08B81C7
:1013B000282F30E038872F834F81588541305105E1
:1013C000A9F18F8198858230910534F42F81388579
:1013D0002115310571F082C04F8158854230510589
:1013E00009F441C08F8198858330910509F458C074
:1013F00075C0E9E3F0E08081282F30E08C81882FF0
:1014000090E0A90102C0559547958A95E2F7CA0177
:10141000817089838981882321F4ED81FE81108286
:101420005DC0ED81FE8181E0808358C0E6E3F0E09D
:101430008081282F30E08C81882F90E0A90102C0A4
:10144000559547958A95E2F7CA018170898389810C
:10145000882321F4ED81FE81108240C0ED81FE8160
:1014600081E080833BC0E3E3F0E08081282F30E01F
:101470008C81882F90E0A90102C0559547958A95E7
:10148000E2F7CA01817089838981882321F4ED8183
:10149000FE81108223C0ED81FE8181E080831EC029
:1014A000E0E3F0E08081282F30E08C81882F90E00D
:1014B000A90102C0559547958A95E2F7CA01817046
:1014C00089838981882321F4ED81FE81108206C001
:1014D000ED81FE8181E0808301C01A828A81289695
:1014E0000FB6F894DEBF0FBECDBFCF91DF91089548
:1014F000DF93CF9300D000D00F92CDB7DEB78A83B1
:101500006B8381E089838A81843008F056C08B81A7
:10151000813021F08B81882309F04FC08A81282FE8
:1015200030E03D832C838C819D818130910509F1D0
:101530002C813D81223031052CF48C819D810097D6
:1015400061F03CC02C813D8122303105F1F08C816D
:101550009D818330910529F131C08B81813029F43F
:10156000EAE3F0E08FEF808329C0EAE3F0E0108245
:1015700025C08B81813029F4E7E3F0E08FEF808391
:101580001DC0E7E3F0E0108219C08B81813029F49F
:10159000E4E3F0E08FEF808311C0E4E3F0E0108239
:1015A0000DC08B81813029F4E1E3F0E08FEF80837F
:1015B00005C0E1E3F0E0108201C0198289810F903B
:1015C0000F900F900F900F90CF91DF910895DF93C0
:1015D000CF9300D000D00F92CDB7DEB78A836B8354
:1015E00081E089838A81282F30E03D832C838C81A0
:1015F0009D8181309105D1F02C813D8122303105D2
:101600002CF48C819D81009761F01FC02C813D815D
:101610002230310581F08C819D818330910581F0EC
:1016200014C0EBE3F0E08B81808310C0E8E3F0E0CE
:101630008B8180830BC0E5E3F0E08B81808306C063
:10164000E2E3F0E08B81808301C0198289810F90F1
:101650000F900F900F900F90CF91DF910895DF932F
:10166000CF9300D000D000D0CDB7DEB78A837C8383
:101670006B8381E089838B819C810097D9F18A817A
:10168000282F30E03E832D838D819E81813091050E
:10169000E1F02D813E81223031052CF48D819E8137
:1016A000009761F028C02D813E8122303105A1F0E4
:1016B0008D819E8183309105B1F01DC0EBE3F0E098
:1016C0008081EB81FC81808316C0E8E3F0E08081BB
:1016D000EB81FC8180830FC0E5E3F0E08081EB814A
:1016E000FC81808308C0E2E3F0E08081EB81FC8133
:1016F000808301C01982898126960FB6F894DEBFD7
:101700000FBECDBFCF91DF910895DF93CF93CDB7BB
:10171000DEB727970FB6F894DEBF0FBECDBF9F830D
:101720008E8381E08C831B828E819F81009709F4D8
:1017300071C0EE81FF818FEF80831A8266C08A813B
:10174000882F90E0FC01E457FE4F908181E0692FE3
:1017500040E00E94C208198242C08981882F90E02F
:10176000FC01E857FE4F90819E012B5F3F4F83E0C5
:10177000692FA9010E94BA098D81882369F58A81A0
:10178000482F50E08981282F30E0CA01880F991F27
:10179000880F991F820F931F880F991FFC01E8592A
:1017A000FE4F80819181EE81FF8180830FC089810E
:1017B000882F90E0FC01E857FE4F90819E012B5F3F
:1017C0003F4F83E0692FA9010E94BA098D818823C8
:1017D00071F381E08B8307C089818F5F8983898161
:1017E000843008F4BACF8A81882F90E0FC01E45756
:1017F000FE4F908181E0692F41E00E94C2088B81F9
:10180000813049F08A818F5F8A838A81843008F42D
:1018100096CF01C01C828C8127960FB6F894DEBF4C
:101820000FBECDBFCF91DF9108950F931F93DF932C
:10183000CF93CDB7DEB7CA55D0400FB6F894DEBF10
:101840000FBECDBFFE01E95AFF4F80E090E0ACE053
:10185000B2E480839183A283B3838E010D5A1F4F1C
:10186000FE01E95AFF4F608171818281938120E0FE
:1018700030E04AE755E40E941F02DC01CB01F80189
:1018800080839183A283B383FE01ED5AFF4F608171
:1018900071818281938120E030E040E85FE30E9423
:1018A0005504882344F4FE01EF5AFF4F81E090E095
:1018B0009183808364C0FE01ED5AFF4F6081718186
:1018C0008281938120E03FEF4FE757E40E94F503C8
:1018D00018160CF043C0FE01E95AFF4F6081718178
:1018E0008281938120E030E040E251E40E941F02B7
:1018F000DC01CB018E010F5A1F4FBC01CD010E94AC
:101900004900DC01CB01F801918380831FC0FE01F7
:10191000E15BFF4F80E991E091838083FE01E15B11
:10192000FF4F808191810197F1F7FE01E15BFF4F4D
:1019300091838083DE01AF5ABF4FFE01EF5AFF4F04
:1019400080819181019711969C938E93FE01EF5AAD
:10195000FF4F808191810097D1F627C08E010F5AE9
:101960001F4FFE01ED5AFF4F60817181828193818B
:101970000E944900DC01CB01F80191838083DE01E4
:10198000A35BBF4FFE01EF5AFF4F808191818D9382
:101990009C93FE01E35BFF4F808191810197F1F7FA
:1019A000FE01E35BFF4F9183808380E061E040E0D4
:1019B0000E94C20880E060E040E00E94C20882E02D
:1019C0000E94241380E062E041E00E94C208FE0110
:1019D000E75BFF4F80E090E0A0E8BFE38083918366
:1019E000A283B3838E010B5B1F4FFE01E75BFF4FAA
:1019F000608171818281938120E030E04AE755E483
:101A00000E941F02DC01CB01F80180839183A28335
:101A1000B383FE01EB5BFF4F608171818281938113
:101A200020E030E040E85FE30E945504882344F45E
:101A3000FE01ED5BFF4F81E090E09183808364C005
:101A4000FE01EB5BFF4F608171818281938120E019
:101A50003FEF4FE757E40E94F50318160CF043C020
:101A6000FE01E75BFF4F608171818281938120E0FD
:101A700030E040E251E40E941F02DC01CB018E0104
:101A80000D5B1F4FBC01CD010E944900DC01CB0161
:101A9000F801918380831FC0FE01EF5BFF4F80E957
:101AA00091E091838083FE01EF5BFF4F8081918104
:101AB0000197F1F7FE01EF5BFF4F91838083DE0119
:101AC000AD5BBF4FFE01ED5BFF4F808191810197C0
:101AD00011969C938E93FE01ED5BFF4F8081918167
:101AE0000097D1F624C08E010D5B1F4FFE01EB5B0A
:101AF000FF4F60817181828193810E944900DC01E6
:101B0000CB01F80191838083FE01ED5BFF4F808163
:101B10009181FE01FF9691838083FE01FF96808173
:101B200091810197F1F7FE01FF969183808380E018
:101B300062E040E00E94C20888E20E94A20F80E0BA
:101B400090E0A4E3B2E48BAF9CAFADAFBEAF6BADA2
:101B50007CAD8DAD9EAD2BEA3AEA4AEA50E40E9494
:101B60001F02DC01CB018FAB98AFA9AFBAAF6FA951
:101B700078AD89AD9AAD20E030E040E85FE30E94A7
:101B8000550488231CF481E08EAB91C06FA978AD19
:101B900089AD9AAD20E030E04FE753E40E94F503B1
:101BA00018160CF07BC06BAD7CAD8DAD9EAD20E00A
:101BB00030E04AE754E40E941903DC01CB018AAB10
:101BC0009BABACABBDAB6AA97BA98CA99DA920E05E
:101BD00030E04AE755E40E941F02DC01CB018EA7EA
:101BE0009FA7A8ABB9AB6EA57FA588A999A920E04E
:101BF00030E040E85FE30E94550488232CF481E044
:101C000090E09DA78CA73FC06EA57FA588A999A944
:101C100020E03FEF4FE757E40E94F50318164CF51C
:101C20006AA97BA98CA99DA920E030E040E251E49B
:101C30000E941F02DC01CB01BC01CD010E944900C2
:101C4000DC01CB019DA78CA70FC080E991E09BA789
:101C50008AA78AA59BA50197F1F79BA78AA78CA5C0
:101C60009DA501979DA78CA78CA59DA5009769F7B9
:101C700024C06EA57FA588A999A90E944900DC010E
:101C8000CB019DA78CA78CA59DA599A788A788A502
:101C900099A50197F1F799A788A70FC06FA978AD0B
:101CA00089AD9AAD0E944900DC01CB018EAB8EA9B3
:101CB0008FA38FA18A95F1F78FA38FE00E94A20FC7
:101CC00080E090E0A4E3B2E48BA39CA3ADA3BEA309
:101CD0006BA17CA18DA19EA12BEA3AEA4AEA50E4CD
:101CE0000E941F02DC01CB018F8F98A3A9A3BAA386
:101CF0006F8D78A189A19AA120E030E040E85FE3F0
:101D00000E94550488231CF481E08E8F91C06F8D52
:101D100078A189A19AA120E030E04FE753E40E9426
:101D2000F50318160CF07BC06BA17CA18DA19EA1C0
:101D300020E030E04AE754E40E941903DC01CB01C3
:101D40008A8F9B8FAC8FBD8F6A8D7B8D8C8D9D8D87
:101D500020E030E04AE755E40E941F02DC01CB019D
:101D60008E8B9F8BA88FB98F6E897F89888D998D77
:101D700020E030E040E85FE30E94550488232CF423
:101D800081E090E09D8B8C8B3FC06E897F89888D30
:101D9000998D20E03FEF4FE757E40E94F5031816B6
:101DA0004CF56A8D7B8D8C8D9D8D20E030E040E27E
:101DB00051E40E941F02DC01CB01BC01CD010E9455
:101DC0004900DC01CB019D8B8C8B0FC080E991E039
:101DD0009B8B8A8B8A899B890197F1F79B8B8A8BD6
:101DE0008C899D8901979D8B8C8B8C899D8900970F
:101DF00069F724C06E897F89888D998D0E9449007A
:101E0000DC01CB019D8B8C8B8C899D89998B888B78
:101E1000888999890197F1F7998B888B0FC06F8D0D
:101E200078A189A19AA10E944900DC01CB018E8F83
:101E30008E8D8F878F858A95F1F78F8781E00E943D
:101E4000A20F80E090E0A0E0B0E48B879C87AD8794
:101E5000BE876B857C858D859E8520E030E04AE7D6
:101E600055E40E941F02DC01CB018F839887A9876C
:101E7000BA876F81788589859A8520E030E040E8CF
:101E80005FE30E94550488232CF481E090E09E8358
:101E90008D833FC06F81788589859A8520E03FEFEB
:101EA0004FE757E40E94F50318164CF56B857C85C7
:101EB0008D859E8520E030E040E251E40E941F02C3
:101EC000DC01CB01BC01CD010E944900DC01CB014A
:101ED0009E838D830FC080E991E09C838B838B81EF
:101EE0009C810197F1F79C838B838D819E81019763
:101EF0009E838D838D819E81009769F714C06F81C9
:101F0000788589859A850E944900DC01CB019E83F2
:101F10008D838D819E819A83898389819A8101979E
:101F2000F1F79A83898386E00E94A20FC65ADF4F99
:101F30000FB6F894DEBF0FBECDBFCF91DF911F91DA
:101F40000F910895DF93CF93CDB7DEB76D970FB69E
:101F5000F894DEBF0FBECDBF8D8F80E061E040E022
:101F60000E94C20880E060E040E00E94C2088D8DBF
:101F700082958F700E94241380E062E041E00E940D
:101F8000C20880E090E0A0E8BFE3898F9A8FAB8F12
:101F9000BC8F698D7A8D8B8D9C8D20E030E04AE777
:101FA00055E40E941F02DC01CB018D8B9E8BAF8B11
:101FB000B88F6D897E898F89988D20E030E040E868
:101FC0005FE30E94550488232CF481E090E09C8B11
:101FD0008B8B3FC06D897E898F89988D20E03FEF84
:101FE0004FE757E40E94F50318164CF5698D7A8D7A
:101FF0008B8D9C8D20E030E040E251E40E941F0276
:10200000DC01CB01BC01CD010E944900DC01CB0108
:102010009C8B8B8B0FC080E991E09A8B898B89898F
:102020009A890197F1F79A8B898B8B899C89019703
:102030009C8B8B8B8B899C89009769F714C06D8969
:102040007E898F89988D0E944900DC01CB019C8B91
:102050008B8B8B899C89988B8F878F85988901972B
:10206000F1F7988B8F8780E062E040E00E94C20821
:102070008D8D0E94241380E062E041E00E94C2083E
:1020800080E090E0A0E8BFE38B879C87AD87BE87A8
:102090006B857C858D859E8520E030E04AE755E4A0
:1020A0000E941F02DC01CB018F839887A987BA8722
:1020B0006F81788589859A8520E030E040E85FE38C
:1020C0000E94550488232CF481E090E09E838D8348
:1020D0003FC06F81788589859A8520E03FEF4FE783
:1020E00057E40E94F50318164CF56B857C858D85A9
:1020F0009E8520E030E040E251E40E941F02DC01B6
:10210000CB01BC01CD010E944900DC01CB019E83C3
:102110008D830FC080E991E09C838B838B819C81B0
:102120000197F1F79C838B838D819E8101979E831C
:102130008D838D819E81009769F714C06F817885AA
:1021400089859A850E944900DC01CB019E838D839D
:102150008D819E819A83898389819A810197F1F784
:102160009A83898380E062E040E00E94C2086D9615
:102170000FB6F894DEBF0FBECDBFCF91DF910895AB
:10218000DF93CF93CDB7DEB76D970FB6F894DEBF70
:102190000FBECDBF8D8F80E061E041E00E94C2089C
:1021A00080E060E040E00E94C2088D8D82958F70D3
:1021B0000E94241380E062E041E00E94C20880E0B7
:1021C00090E0A0E8BFE3898F9A8FAB8FBC8F698DB9
:1021D0007A8D8B8D9C8D20E030E04AE755E40E949B
:1021E0001F02DC01CB018D8B9E8BAF8BB88F6D896D
:1021F0007E898F89988D20E030E040E85FE30E947F
:10220000550488232CF481E090E09C8B8B8B3FC09D
:102210006D897E898F89988D20E03FEF4FE757E4E5
:102220000E94F50318164CF5698D7A8D8B8D9C8D67
:1022300020E030E040E251E40E941F02DC01CB01CB
:10224000BC01CD010E944900DC01CB019C8B8B8B32
:102250000FC080E991E09A8B898B89899A890197CF
:10226000F1F79A8B898B8B899C8901979C8B8B8B3F
:102270008B899C89009769F714C06D897E898F8945
:10228000988D0E944900DC01CB019C8B8B8B8B8944
:102290009C89988B8F878F8598890197F1F7988B08
:1022A0008F8780E062E040E00E94C2088D8D0E942E
:1022B000241380E062E041E00E94C20880E090E0E8
:1022C000A0E8BFE38B879C87AD87BE876B857C8545
:1022D0008D859E8520E030E04AE755E40E941F028C
:1022E000DC01CB018F839887A987BA876F817885B6
:1022F00089859A8520E030E040E85FE30E9455043C
:1023000088232CF481E090E09E838D833FC06F8111
:10231000788589859A8520E03FEF4FE757E40E9452
:10232000F50318164CF56B857C858D859E8520E020
:1023300030E040E251E40E941F02DC01CB01BC010D
:10234000CD010E944900DC01CB019E838D830FC02B
:1023500080E991E09C838B838B819C810197F1F7CD
:102360009C838B838D819E8101979E838D838D813C
:102370009E81009769F714C06F81788589859A8559
:102380000E944900DC01CB019E838D838D819E815B
:102390009A83898389819A810197F1F79A83898346
:1023A00080E062E040E00E94C2086D960FB6F894AB
:1023B000DEBF0FBECDBFCF91DF910895DF93CF93E6
:1023C00000D000D00F92CDB7DEB79B838A836C8399
:1023D0004D838C816D810E94FC1219820EC089810F
:1023E000282F30E08A819B81FC01E20FF31F80815E
:1023F0000E94C01089818F5F89838981282F30E0F6
:102400008A819B81FC01E20FF31F8081882339F7C9
:102410000F900F900F900F900F90CF91DF91089534
:102420000F931F93DF93CF93CDB7DEB765970FB6AA
:10243000F894DEBF0FBECDBF6A8B7B8B8C8B9D8BE0
:10244000188A34C08889082F10E08A899B89AC8952
:10245000BD892AE030E040E050E0BC01CD010E949F
:102460001617DC01CB019C01AD01C801880F991F33
:10247000880F991FFC01E057FE4F20833183428370
:1024800053838A899B89AC89BD892AE030E040E08A
:1024900050E0BC01CD010E941617DA01C9018A8BF8
:1024A0009B8BAC8BBD8B88898F5F888B8A899B893E
:1024B000AC89BD890097A105B10521F688898150B5
:1024C000888B88898F8789C08F85992787FD90950C
:1024D000880F991F880F991FFC01E057FE4F8081DC
:1024E0009181A281B381805D898B89890E94C0100E
:1024F00080E090E0A8ECB2E48B879C87AD87BE8734
:102500006B857C858D859E8520E030E04AE755E42B
:102510000E941F02DC01CB018F839887A987BA87AD
:102520006F81788589859A8520E030E040E85FE317
:102530000E94550488232CF481E090E09E838D83D3
:102540003FC06F81788589859A8520E03FEF4FE70E
:1025500057E40E94F50318164CF56B857C858D8534
:102560009E8520E030E040E251E40E941F02DC0141
:10257000CB01BC01CD010E944900DC01CB019E834F
:102580008D830FC080E991E09C838B838B819C813C
:102590000197F1F79C838B838D819E8101979E83A8
:1025A0008D838D819E81009769F714C06F81788536
:1025B00089859A850E944900DC01CB019E838D8329
:1025C0008D819E819A83898389819A810197F1F710
:1025D0009A8389838F8581508F878F8588230CF01C
:1025E00073CF65960FB6F894DEBF0FBECDBFCF9107
:1025F000DF911F910F910895DF93CF9300D000D00A
:10260000CDB7DEB789836A838981282F30E03C8388
:102610002B838B819C818130910531F02B813C8112
:102620002230310531F009C08A8180580E94A20F02
:1026300004C08A8180540E94A20F0F900F900F90C7
:102640000F90CF91DF910895DF93CF9300D0CDB756
:10265000DEB78A838A81817089838981882331F4F6
:1026600080E063E040E00E94C20805C080E063E0D3
:1026700041E00E94C2088A818695817089838981A0
:10268000882331F480E064E040E00E94C20805C085
:1026900080E064E041E00E94C2088A8186958695C8
:1026A000817089838981882331F480E065E040E08E
:1026B0000E94C20805C080E065E041E00E94C208B7
:1026C0008A818695869586958170898389818823FC
:1026D00031F480E066E040E00E94C20805C080E07E
:1026E00066E041E00E94C2080F900F90CF91DF9109
:1026F0000895DF93CF9300D000D000D0CDB7DEB7E0
:102700009B838A836C834D832E838C81882F90E0FA
:102710000896880F991F880F991F880F991F0E948C
:10272000A20F19820EC08981282F30E08A819B81F7
:10273000FC01E20FF31F80810E94C01089818F5F2E
:1027400089838981883078F38D816E810E94FC12A3
:102750008C810E94C01026960FB6F894DEBF0FBE83
:10276000CDBFCF91DF910895EF92FF920F931F930A
:10277000DF93CF93CDB7DEB760970FB6F894DEBF87
:102780000FBECDBF6D877E878F87988B6D857E85C9
:102790008F85988920E030E040E050E00E945504A9
:1027A000882364F48D859E85AF85B889B0588D8760
:1027B0009E87AF87B88B8DE20E94C0106D857E85A5
:1027C0008F8598890E944900DC01CB0189879A870F
:1027D000AB87BC876D857E858F85988920E030E04A
:1027E00040E050E00E94C503882321F480E30E946A
:1027F000C010ECC089859A85AB85BC850097A10582
:10280000B10519F480E30E94C01081E090E0A0E0DF
:10281000B0E08D839E83AF83B88736C08D819E8163
:10282000AF81B8852AE030E040E050E0BC01CD0146
:102830000E94EB167B018C0189859A85AB85BC854E
:102840002AE030E040E050E0BC01CD010E941617C4
:10285000DC01CB018E0D9F1DA01FB11F8D839E83B8
:10286000AF83B88789859A85AB85BC852AE030E03F
:1028700040E050E0BC01CD010E941617DA01C90109
:1028800089879A87AB87BC8789859A85AB85BC8504
:102890000097A105B10511F68D819E81AF81B885A4
:1028A00089879A87AB87BC8723C089859A85AB8542
:1028B000BC852AE030E040E050E0BC01CD010E9440
:1028C0001617DC01CB01805D0E94C01089859A85B6
:1028D000AB85BC852AE030E040E050E0BC01CD0192
:1028E0000E941617DA01C90189879A87AB87BC87CE
:1028F00089859A85AB85BC8581309105A105B10597
:10290000A1F66D857E858F8598890E944900DC013E
:10291000CB01BC01CD010E9437059B01AC016D8547
:102920007E858F8598890E94C101DC01CB01898356
:102930009A83AB83BC8369817A818B819C8120E0FF
:1029400030E040E050E00E94F50318160CF03EC065
:102950008EE20E94C01069817A818B819C8120E087
:1029600030E040E251E40E941F02DC01CB01898388
:102970009A83AB83BC8369817A818B819C810E941D
:102980004900DC01CB01805D0E94C01069817A8121
:102990008B819C8120E030E040E251E40E941F02E4
:1029A000DC01CB0189839A83AB83BC8369817A8103
:1029B0008B819C810E944900DC01CB019AE0692F48
:1029C0000E940A17892F805D0E94C01060960FB682
:1029D000F894DEBF0FBECDBFCF91DF911F910F9155
:1029E000FF90EF900895EF92FF920F931F93DF9364
:1029F000CF93CDB7DEB76E970FB6F894DEBF0FBE9C
:102A0000CDBF80E090E0A0E0B0E0888F998FAA8FE2
:102A1000BB8F80E090E0A0E0B0E08C8B9D8BAE8B14
:102A2000BF8B0E94A5070E94150C3FC0CE014C969B
:102A30000E94850B8C8D8F3FC1F18C8D8033A8F166
:102A40008C8D8A3390F58C8D0E94C010688D798DA5
:102A50008A8D9B8D20E030E040E251E40E941F020D
:102A6000DC01CB017C018D018C8D882F90E0AA27A1
:102A700097FDA095BA2FBC01CD010E9485049B0152
:102A8000AC01C801B7010E94F201DC01CB01BC011D
:102A9000CD0120E030E040E452E40E94C101DC01BD
:102AA000CB01888F998FAA8FBB8F8C8D8B3269F069
:102AB0008C8D8D3251F08C8D8A3239F08C8D8F3225
:102AC00021F08C8D853209F0B1CF8C8D8B8B8C8D64
:102AD0000E94C0103FC0CE014C960E94850B8C8D89
:102AE0008F3FC1F18C8D8033A8F18C8D8A3390F5A6
:102AF0008C8D0E94C0106C897D898E899F8920E011
:102B000030E040E251E40E941F02DC01CB017C0175
:102B10008D018C8D882F90E0AA2797FDA095BA2F64
:102B2000BC01CD010E9485049B01AC01C801B70125
:102B30000E94F201DC01CB01BC01CD0120E030E0BC
:102B400040E452E40E94C101DC01CB018C8B9D8BDF
:102B5000AE8BBF8B8C8D8D3309F0BDCF8C8D0E94D9
:102B6000C0108B89282F30E03E8F2D8F8D8D9E8D4C
:102B70008B329105F1F02D8D3E8D2C3231056CF4A8
:102B80008D8D9E8D8532910509F477C02D8D3E8DFA
:102B90002A32310509F43FC098C08D8D9E8D8D324B
:102BA000910501F12D8D3E8D2F32310509F44CC078
:102BB0008CC0688D798D8A8D9B8D2C893D894E893D
:102BC0005F890E94F201DC01CB018F87988BA98B72
:102BD000BA8B8F859889A989BA89BC01CD010E94D9
:102BE000B41373C0688D798D8A8D9B8D2C893D8936
:102BF0004E895F890E94C101DC01CB018F87988BD0
:102C0000A98BBA8B8F859889A989BA89BC01CD0116
:102C10000E94B4135AC0688D798D8A8D9B8D2C8942
:102C20003D894E895F890E941F02DC01CB018F879D
:102C3000988BA98BBA8B8F859889A989BA89BC0191
:102C4000CD010E94B41341C0688D798D8A8D9B8D12
:102C50002C893D894E895F890E941903DC01CB01D3
:102C60008F87988BA98BBA8B8F859889A989BA8908
:102C7000BC01CD010E94B41328C0688D798D8A8D66
:102C80009B8D0E9449007B018C016C897D898E8916
:102C90009F890E9449009B01AC01C801B7010E94B5
:102CA0001617DC01CB01BC01CD010E943705DC0108
:102CB000CB018F87988BA98BBA8B8F859889A9892F
:102CC000BA89BC01CD010E94B41380E090E0A0E07D
:102CD000B0E0888F998FAA8FBB8F80E090E0A0E052
:102CE000B0E08C8B9D8BAE8BBF8B80E090E0AAE731
:102CF000B4E48B879C87AD87BE876B857C858D858B
:102D00009E8520E030E04AE755E40E941F02DC0186
:102D1000CB018F839887A987BA876F81788589854A
:102D20009A8520E030E040E85FE30E945504882364
:102D30002CF481E090E09E838D833FC06F81788585
:102D400089859A8520E03FEF4FE757E40E94F5031D
:102D500018164CF56B857C858D859E8520E030E0CE
:102D600040E251E40E941F02DC01CB01BC01CD0115
:102D70000E944900DC01CB019E838D830FC080E956
:102D800091E09C838B838B819C810197F1F79C83DD
:102D90008B838D819E8101979E838D838D819E8102
:102DA000009769F714C06F81788589859A850E949C
:102DB0004900DC01CB019E838D838D819E819A83A6
:102DC000898389819A810197F1F79A83898381E0C8
:102DD0000E94A20F6ACE629FD001739FF001829F72
:102DE000E00DF11D649FE00DF11D929FF00D839F9A
:102DF000F00D749FF00D659FF00D9927729FB00D37
:102E0000E11DF91F639FB00DE11DF91FBD01CF0149
:102E100011240895991B79E004C0991F961708F0B2
:102E2000961B881F7A95C9F780950895A1E21A2EFE
:102E3000AA1BBB1BFD010DC0AA1FBB1FEE1FFF1F5E
:102E4000A217B307E407F50720F0A21BB30BE40BAE
:102E5000F50B661F771F881F991F1A9469F76095F5
:102E60007095809590959B01AC01BD01CF010895AF
:102E70002F923F924F925F926F927F928F929F928A
:102E8000AF92BF92CF92DF92EF92FF920F931F9378
:102E9000CF93DF93CDB7DEB7CA1BDB0B0FB6F89429
:102EA000DEBF0FBECDBF09942A88398848885F8469
:102EB0006E847D848C849B84AA84B984C884DF80DA
:102EC000EE80FD800C811B81AA81B981CE0FD11DBE
:102ED0000FB6F894DEBF0FBECDBFED010895F89494
:022EE000FFCF22
:102EE20000000000000000000001020203030303CF
:102EF2000404040404040404050505050505050588
:102F02000505050505050505060606060606060667
:102F1200060606060606060606060606060606064F
:102F22000606060606060606070707070707070737
:102F3200070707070707070707070707070707071F
:102F4200070707070707070707070707070707070F
:102F520007070707070707070707070707070707FF
:102F620007070707070707070808080808080808E7
:102F720008080808080808080808080808080808CF
:102F820008080808080808080808080808080808BF
:102F920008080808080808080808080808080808AF
:102FA200080808080808080808080808080808089F
:102FB200080808080808080808080808080808088F
:102FC200080808080808080808080808080808087F
:102FD200080808080808080808080808080808086F
:102FE20008080808080808083100320033002B00DE
:102FF2003400350036002D003700380039002A0031
:10300200300025002F003D000203040504050607D9
:00000001FF
